{
    "_format": "hh-sol-artifact-1",
    "contractName": "IdeaHunt",
    "sourceName": "contracts/IdeaHunt.sol",
    "abi": [
        {
            "inputs": [
                {
                    "internalType": "address",
                    "name": "tokenContractAddress",
                    "type": "address"
                }
            ],
            "stateMutability": "nonpayable",
            "type": "constructor"
        },
        {
            "anonymous": false,
            "inputs": [
                {
                    "indexed": false,
                    "internalType": "uint256",
                    "name": "boardID",
                    "type": "uint256"
                }
            ],
            "name": "CloseBoardEvent",
            "type": "event"
        },
        {
            "anonymous": false,
            "inputs": [
                {
                    "indexed": false,
                    "internalType": "uint256",
                    "name": "boardID",
                    "type": "uint256"
                },
                {
                    "indexed": false,
                    "internalType": "address",
                    "name": "admin",
                    "type": "address"
                },
                {
                    "indexed": false,
                    "internalType": "string",
                    "name": "name",
                    "type": "string"
                },
                {
                    "indexed": false,
                    "internalType": "string",
                    "name": "description",
                    "type": "string"
                }
            ],
            "name": "NewBoardEvent",
            "type": "event"
        },
        {
            "anonymous": false,
            "inputs": [
                {
                    "indexed": false,
                    "internalType": "uint256",
                    "name": "uid",
                    "type": "uint256"
                },
                {
                    "indexed": false,
                    "internalType": "uint256",
                    "name": "boardID",
                    "type": "uint256"
                },
                {
                    "indexed": false,
                    "internalType": "address",
                    "name": "owner",
                    "type": "address"
                },
                {
                    "indexed": false,
                    "internalType": "string",
                    "name": "idea",
                    "type": "string"
                },
                {
                    "indexed": false,
                    "internalType": "string",
                    "name": "link",
                    "type": "string"
                }
            ],
            "name": "NewIdeaEvent",
            "type": "event"
        },
        {
            "anonymous": false,
            "inputs": [
                {
                    "indexed": false,
                    "internalType": "uint256",
                    "name": "uid",
                    "type": "uint256"
                },
                {
                    "indexed": false,
                    "internalType": "uint256",
                    "name": "boardID",
                    "type": "uint256"
                },
                {
                    "indexed": false,
                    "internalType": "address",
                    "name": "caster",
                    "type": "address"
                },
                {
                    "indexed": false,
                    "internalType": "uint256",
                    "name": "votes",
                    "type": "uint256"
                }
            ],
            "name": "NewVoteEvent",
            "type": "event"
        },
        {
            "inputs": [
                {
                    "internalType": "string",
                    "name": "name",
                    "type": "string"
                },
                {
                    "internalType": "string",
                    "name": "description",
                    "type": "string"
                },
                {
                    "internalType": "address",
                    "name": "writerGateToken",
                    "type": "address"
                },
                {
                    "internalType": "address",
                    "name": "voterGateToken",
                    "type": "address"
                },
                {
                    "internalType": "uint256",
                    "name": "bounty",
                    "type": "uint256"
                }
            ],
            "name": "addBoard",
            "outputs": [],
            "stateMutability": "payable",
            "type": "function"
        },
        {
            "inputs": [
                {
                    "internalType": "uint256",
                    "name": "boardID",
                    "type": "uint256"
                },
                {
                    "internalType": "string",
                    "name": "ideaDescription",
                    "type": "string"
                },
                {
                    "internalType": "string",
                    "name": "ideaLink",
                    "type": "string"
                }
            ],
            "name": "addIdea",
            "outputs": [],
            "stateMutability": "nonpayable",
            "type": "function"
        },
        {
            "inputs": [
                {
                    "internalType": "uint256",
                    "name": "boardID",
                    "type": "uint256"
                },
                {
                    "internalType": "uint256",
                    "name": "uid",
                    "type": "uint256"
                }
            ],
            "name": "canVote",
            "outputs": [
                {
                    "internalType": "bool",
                    "name": "",
                    "type": "bool"
                }
            ],
            "stateMutability": "view",
            "type": "function"
        },
        {
            "inputs": [
                {
                    "internalType": "uint256",
                    "name": "boardID",
                    "type": "uint256"
                }
            ],
            "name": "canVoteInBoard",
            "outputs": [
                {
                    "internalType": "bool",
                    "name": "",
                    "type": "bool"
                }
            ],
            "stateMutability": "view",
            "type": "function"
        },
        {
            "inputs": [
                {
                    "internalType": "uint256",
                    "name": "boardID",
                    "type": "uint256"
                }
            ],
            "name": "canWrite",
            "outputs": [
                {
                    "internalType": "bool",
                    "name": "",
                    "type": "bool"
                }
            ],
            "stateMutability": "view",
            "type": "function"
        },
        {
            "inputs": [
                {
                    "internalType": "uint256",
                    "name": "boardID",
                    "type": "uint256"
                }
            ],
            "name": "closeBoard",
            "outputs": [],
            "stateMutability": "nonpayable",
            "type": "function"
        },
        {
            "inputs": [],
            "name": "getBoards",
            "outputs": [
                {
                    "components": [
                        {
                            "internalType": "string",
                            "name": "name",
                            "type": "string"
                        },
                        {
                            "internalType": "string",
                            "name": "description",
                            "type": "string"
                        },
                        {
                            "internalType": "address",
                            "name": "voterGateToken",
                            "type": "address"
                        },
                        {
                            "internalType": "address",
                            "name": "writerGateToken",
                            "type": "address"
                        },
                        {
                            "internalType": "uint256",
                            "name": "bounty",
                            "type": "uint256"
                        },
                        {
                            "internalType": "bool",
                            "name": "open",
                            "type": "bool"
                        },
                        {
                            "internalType": "address",
                            "name": "admin",
                            "type": "address"
                        }
                    ],
                    "internalType": "struct IdeaHunt.Board[]",
                    "name": "",
                    "type": "tuple[]"
                }
            ],
            "stateMutability": "view",
            "type": "function"
        },
        {
            "inputs": [
                {
                    "internalType": "uint256",
                    "name": "boardID",
                    "type": "uint256"
                }
            ],
            "name": "getIdeas",
            "outputs": [
                {
                    "components": [
                        {
                            "internalType": "string",
                            "name": "idea",
                            "type": "string"
                        },
                        {
                            "internalType": "string",
                            "name": "link",
                            "type": "string"
                        },
                        {
                            "internalType": "uint256",
                            "name": "votes",
                            "type": "uint256"
                        },
                        {
                            "internalType": "address",
                            "name": "owner",
                            "type": "address"
                        },
                        {
                            "internalType": "uint256",
                            "name": "boardID",
                            "type": "uint256"
                        },
                        {
                            "internalType": "uint256",
                            "name": "uid",
                            "type": "uint256"
                        },
                        {
                            "internalType": "bool",
                            "name": "voted",
                            "type": "bool"
                        }
                    ],
                    "internalType": "struct IdeaHunt.IdeaDTO[]",
                    "name": "",
                    "type": "tuple[]"
                }
            ],
            "stateMutability": "view",
            "type": "function"
        },
        {
            "inputs": [],
            "name": "getUserIdeas",
            "outputs": [
                {
                    "components": [
                        {
                            "internalType": "string",
                            "name": "idea",
                            "type": "string"
                        },
                        {
                            "internalType": "string",
                            "name": "link",
                            "type": "string"
                        },
                        {
                            "internalType": "uint256",
                            "name": "votes",
                            "type": "uint256"
                        },
                        {
                            "internalType": "address",
                            "name": "owner",
                            "type": "address"
                        },
                        {
                            "internalType": "uint256",
                            "name": "boardID",
                            "type": "uint256"
                        },
                        {
                            "internalType": "uint256",
                            "name": "uid",
                            "type": "uint256"
                        },
                        {
                            "internalType": "bool",
                            "name": "voted",
                            "type": "bool"
                        }
                    ],
                    "internalType": "struct IdeaHunt.IdeaDTO[]",
                    "name": "",
                    "type": "tuple[]"
                }
            ],
            "stateMutability": "view",
            "type": "function"
        },
        {
            "inputs": [],
            "name": "isHunter",
            "outputs": [
                {
                    "internalType": "bool",
                    "name": "",
                    "type": "bool"
                }
            ],
            "stateMutability": "view",
            "type": "function"
        },
        {
            "inputs": [],
            "name": "mintHunterToken",
            "outputs": [],
            "stateMutability": "payable",
            "type": "function"
        },
        {
            "inputs": [
                {
                    "internalType": "uint256",
                    "name": "boardID",
                    "type": "uint256"
                },
                {
                    "internalType": "uint256",
                    "name": "uid",
                    "type": "uint256"
                }
            ],
            "name": "vote",
            "outputs": [],
            "stateMutability": "nonpayable",
            "type": "function"
        },
        {
            "inputs": [],
            "name": "withdraw",
            "outputs": [],
            "stateMutability": "nonpayable",
            "type": "function"
        }
    ],
    "bytecode": "0x60806040523480156200001157600080fd5b5060405162003d9338038062003d938339818101604052810190620000379190620000d6565b806000806101000a81548173ffffffffffffffffffffffffffffffffffffffff021916908373ffffffffffffffffffffffffffffffffffffffff16021790555033600160006101000a81548173ffffffffffffffffffffffffffffffffffffffff021916908373ffffffffffffffffffffffffffffffffffffffff1602179055505062000150565b600081519050620000d08162000136565b92915050565b600060208284031215620000e957600080fd5b6000620000f984828501620000bf565b91505092915050565b60006200010f8262000116565b9050919050565b600073ffffffffffffffffffffffffffffffffffffffff82169050919050565b620001418162000102565b81146200014d57600080fd5b50565b613c3380620001606000396000f3fe6080604052600436106100c25760003560e01c806383f4c6e91161007f578063b384abef11610059578063b384abef14610268578063dd1cfa4614610291578063ef233c0b146102ad578063fce4ad68146102ea576100c2565b806383f4c6e9146101e95780639d76918b14610214578063ab977e021461023d576100c2565b806315aa0a50146100c7578063210c1f29146100f25780632ef573cd1461011b5780633ccfd60b14610158578063736239391461016f5780637d8aa2b7146101ac575b600080fd5b3480156100d357600080fd5b506100dc6102f4565b6040516100e99190613343565b60405180910390f35b3480156100fe57600080fd5b5061011960048036038101906101149190612d1b565b61059e565b005b34801561012757600080fd5b50610142600480360381019061013d9190612d1b565b610a64565b60405161014f9190613387565b60405180910390f35b34801561016457600080fd5b5061016d610f46565b005b34801561017b57600080fd5b5061019660048036038101906101919190612d1b565b611092565b6040516101a39190613387565b60405180910390f35b3480156101b857600080fd5b506101d360048036038101906101ce9190612d1b565b611574565b6040516101e09190613365565b60405180910390f35b3480156101f557600080fd5b506101fe6119d5565b60405161020b9190613365565b60405180910390f35b34801561022057600080fd5b5061023b60048036038101906102369190612d6d565b611f1d565b005b34801561024957600080fd5b5061025261211f565b60405161025f9190613387565b60405180910390f35b34801561027457600080fd5b5061028f600480360381019061028a9190612dec565b6121d1565b005b6102ab60048036038101906102a69190612c74565b6123a7565b005b3480156102b957600080fd5b506102d460048036038101906102cf9190612dec565b612831565b6040516102e19190613387565b60405180910390f35b6102f26129ff565b005b60606003805480602002602001604051908101604052809291908181526020016000905b8282101561059557838290600052602060002090600602016040518060e001604052908160008201805461034b9061384a565b80601f01602080910402602001604051908101604052809291908181526020018280546103779061384a565b80156103c45780601f10610399576101008083540402835291602001916103c4565b820191906000526020600020905b8154815290600101906020018083116103a757829003601f168201915b505050505081526020016001820180546103dd9061384a565b80601f01602080910402602001604051908101604052809291908181526020018280546104099061384a565b80156104565780601f1061042b57610100808354040283529160200191610456565b820191906000526020600020905b81548152906001019060200180831161043957829003601f168201915b505050505081526020016002820160009054906101000a900473ffffffffffffffffffffffffffffffffffffffff1673ffffffffffffffffffffffffffffffffffffffff1673ffffffffffffffffffffffffffffffffffffffff1681526020016003820160009054906101000a900473ffffffffffffffffffffffffffffffffffffffff1673ffffffffffffffffffffffffffffffffffffffff1673ffffffffffffffffffffffffffffffffffffffff168152602001600482015481526020016005820160009054906101000a900460ff161515151581526020016005820160019054906101000a900473ffffffffffffffffffffffffffffffffffffffff1673ffffffffffffffffffffffffffffffffffffffff1673ffffffffffffffffffffffffffffffffffffffff168152505081526020019060010190610318565b50505050905090565b60038054905081106105e5576040517f08c379a00000000000000000000000000000000000000000000000000000000081526004016105dc90613482565b60405180910390fd5b3373ffffffffffffffffffffffffffffffffffffffff1660038281548110610636577f4e487b7100000000000000000000000000000000000000000000000000000000600052603260045260246000fd5b906000526020600020906006020160050160019054906101000a900473ffffffffffffffffffffffffffffffffffffffff1673ffffffffffffffffffffffffffffffffffffffff16146106be576040517f08c379a00000000000000000000000000000000000000000000000000000000081526004016106b590613402565b60405180910390fd5b60006004600083815260200190815260200160002080549050905060008060038481548110610716577f4e487b7100000000000000000000000000000000000000000000000000000000600052603260045260246000fd5b9060005260206000209060060201600401541180156107355750600082115b15610960576000600190505b8281101561082057600460008581526020019081526020016000208181548110610794577f4e487b7100000000000000000000000000000000000000000000000000000000600052603260045260246000fd5b9060005260206000209060040201600201546004600086815260200190815260200160002083815481106107f1577f4e487b7100000000000000000000000000000000000000000000000000000000600052603260045260246000fd5b906000526020600020906004020160020154101561080d578091505b8080610818906138ad565b915050610741565b50600060046000858152602001908152602001600020828154811061086e577f4e487b7100000000000000000000000000000000000000000000000000000000600052603260045260246000fd5b906000526020600020906004020160030160009054906101000a900473ffffffffffffffffffffffffffffffffffffffff1673ffffffffffffffffffffffffffffffffffffffff16600385815481106108f0577f4e487b7100000000000000000000000000000000000000000000000000000000600052603260045260246000fd5b90600052602060002090600602016004015460405161090e90613313565b60006040518083038185875af1925050503d806000811461094b576040519150601f19603f3d011682016040523d82523d6000602084013e610950565b606091505b505090508061095e57600080fd5b505b60006003848154811061099c577f4e487b7100000000000000000000000000000000000000000000000000000000600052603260045260246000fd5b906000526020600020906006020160050160006101000a81548160ff021916908315150217905550600383815481106109fe577f4e487b7100000000000000000000000000000000000000000000000000000000600052603260045260246000fd5b90600052602060002090600602016004015460026000828254610a21919061378c565b925050819055507f5ac8d78d49c3547abd27c2b3275be7c5a0ebd9fab87fbdceef265780c17b3ebf83604051610a579190613522565b60405180910390a1505050565b60006003805490508210610aad576040517f08c379a0000000000000000000000000000000000000000000000000000000008152600401610aa490613482565b60405180910390fd5b600060038381548110610ae9577f4e487b7100000000000000000000000000000000000000000000000000000000600052603260045260246000fd5b90600052602060002090600602016040518060e0016040529081600082018054610b129061384a565b80601f0160208091040260200160405190810160405280929190818152602001828054610b3e9061384a565b8015610b8b5780601f10610b6057610100808354040283529160200191610b8b565b820191906000526020600020905b815481529060010190602001808311610b6e57829003601f168201915b50505050508152602001600182018054610ba49061384a565b80601f0160208091040260200160405190810160405280929190818152602001828054610bd09061384a565b8015610c1d5780601f10610bf257610100808354040283529160200191610c1d565b820191906000526020600020905b815481529060010190602001808311610c0057829003601f168201915b505050505081526020016002820160009054906101000a900473ffffffffffffffffffffffffffffffffffffffff1673ffffffffffffffffffffffffffffffffffffffff1673ffffffffffffffffffffffffffffffffffffffff1681526020016003820160009054906101000a900473ffffffffffffffffffffffffffffffffffffffff1673ffffffffffffffffffffffffffffffffffffffff1673ffffffffffffffffffffffffffffffffffffffff168152602001600482015481526020016005820160009054906101000a900460ff161515151581526020016005820160019054906101000a900473ffffffffffffffffffffffffffffffffffffffff1673ffffffffffffffffffffffffffffffffffffffff1673ffffffffffffffffffffffffffffffffffffffff1681525050905060008073ffffffffffffffffffffffffffffffffffffffff16826060015173ffffffffffffffffffffffffffffffffffffffff161415610e3d5760008060009054906101000a900473ffffffffffffffffffffffffffffffffffffffff1673ffffffffffffffffffffffffffffffffffffffff166370a08231336040518263ffffffff1660e01b8152600401610de59190613328565b60206040518083038186803b158015610dfd57600080fd5b505afa158015610e11573d6000803e3d6000fd5b505050506040513d601f19601f82011682018060405250810190610e359190612d44565b119050610f2f565b600060066000846060015173ffffffffffffffffffffffffffffffffffffffff1673ffffffffffffffffffffffffffffffffffffffff16815260200190815260200160002060009054906101000a900473ffffffffffffffffffffffffffffffffffffffff1673ffffffffffffffffffffffffffffffffffffffff166370a08231336040518263ffffffff1660e01b8152600401610edb9190613328565b60206040518083038186803b158015610ef357600080fd5b505afa158015610f07573d6000803e3d6000fd5b505050506040513d601f19601f82011682018060405250810190610f2b9190612d44565b1190505b8160a001518015610f3d5750805b92505050919050565b600160009054906101000a900473ffffffffffffffffffffffffffffffffffffffff1673ffffffffffffffffffffffffffffffffffffffff163373ffffffffffffffffffffffffffffffffffffffff1614610fd6576040517f08c379a0000000000000000000000000000000000000000000000000000000008152600401610fcd90613442565b60405180910390fd5b60003373ffffffffffffffffffffffffffffffffffffffff1660025447610ffd919061378c565b60405161100990613313565b60006040518083038185875af1925050503d8060008114611046576040519150601f19603f3d011682016040523d82523d6000602084013e61104b565b606091505b505090508061108f576040517f08c379a000000000000000000000000000000000000000000000000000000000815260040161108690613502565b60405180910390fd5b50565b600060038054905082106110db576040517f08c379a00000000000000000000000000000000000000000000000000000000081526004016110d290613482565b60405180910390fd5b600060038381548110611117577f4e487b7100000000000000000000000000000000000000000000000000000000600052603260045260246000fd5b90600052602060002090600602016040518060e00160405290816000820180546111409061384a565b80601f016020809104026020016040519081016040528092919081815260200182805461116c9061384a565b80156111b95780601f1061118e576101008083540402835291602001916111b9565b820191906000526020600020905b81548152906001019060200180831161119c57829003601f168201915b505050505081526020016001820180546111d29061384a565b80601f01602080910402602001604051908101604052809291908181526020018280546111fe9061384a565b801561124b5780601f106112205761010080835404028352916020019161124b565b820191906000526020600020905b81548152906001019060200180831161122e57829003601f168201915b505050505081526020016002820160009054906101000a900473ffffffffffffffffffffffffffffffffffffffff1673ffffffffffffffffffffffffffffffffffffffff1673ffffffffffffffffffffffffffffffffffffffff1681526020016003820160009054906101000a900473ffffffffffffffffffffffffffffffffffffffff1673ffffffffffffffffffffffffffffffffffffffff1673ffffffffffffffffffffffffffffffffffffffff168152602001600482015481526020016005820160009054906101000a900460ff161515151581526020016005820160019054906101000a900473ffffffffffffffffffffffffffffffffffffffff1673ffffffffffffffffffffffffffffffffffffffff1673ffffffffffffffffffffffffffffffffffffffff1681525050905060008073ffffffffffffffffffffffffffffffffffffffff16826040015173ffffffffffffffffffffffffffffffffffffffff16141561146b5760008060009054906101000a900473ffffffffffffffffffffffffffffffffffffffff1673ffffffffffffffffffffffffffffffffffffffff166370a08231336040518263ffffffff1660e01b81526004016114139190613328565b60206040518083038186803b15801561142b57600080fd5b505afa15801561143f573d6000803e3d6000fd5b505050506040513d601f19601f820116820180604052508101906114639190612d44565b11905061155d565b600060066000846040015173ffffffffffffffffffffffffffffffffffffffff1673ffffffffffffffffffffffffffffffffffffffff16815260200190815260200160002060009054906101000a900473ffffffffffffffffffffffffffffffffffffffff1673ffffffffffffffffffffffffffffffffffffffff166370a08231336040518263ffffffff1660e01b81526004016115099190613328565b60206040518083038186803b15801561152157600080fd5b505afa158015611535573d6000803e3d6000fd5b505050506040513d601f19601f820116820180604052508101906115599190612d44565b1190505b8160a00151801561156b5750805b92505050919050565b606060006004600084815260200190815260200160002080549050905060008167ffffffffffffffff8111156115d3577f4e487b7100000000000000000000000000000000000000000000000000000000600052604160045260246000fd5b60405190808252806020026020018201604052801561160c57816020015b6115f9612ad5565b8152602001906001900390816115f15790505b50905060005b828110156119ca576040518060e00160405280600460008881526020019081526020016000208381548110611670577f4e487b7100000000000000000000000000000000000000000000000000000000600052603260045260246000fd5b9060005260206000209060040201600001805461168c9061384a565b80601f01602080910402602001604051908101604052809291908181526020018280546116b89061384a565b80156117055780601f106116da57610100808354040283529160200191611705565b820191906000526020600020905b8154815290600101906020018083116116e857829003601f168201915b5050505050815260200160046000888152602001908152602001600020838154811061175a577f4e487b7100000000000000000000000000000000000000000000000000000000600052603260045260246000fd5b906000526020600020906004020160010180546117769061384a565b80601f01602080910402602001604051908101604052809291908181526020018280546117a29061384a565b80156117ef5780601f106117c4576101008083540402835291602001916117ef565b820191906000526020600020905b8154815290600101906020018083116117d257829003601f168201915b50505050508152602001600460008881526020019081526020016000208381548110611844577f4e487b7100000000000000000000000000000000000000000000000000000000600052603260045260246000fd5b90600052602060002090600402016002015481526020016004600088815260200190815260200160002083815481106118a6577f4e487b7100000000000000000000000000000000000000000000000000000000600052603260045260246000fd5b906000526020600020906004020160030160009054906101000a900473ffffffffffffffffffffffffffffffffffffffff1673ffffffffffffffffffffffffffffffffffffffff1681526020018681526020018281526020016005600088815260200190815260200160002060003373ffffffffffffffffffffffffffffffffffffffff1673ffffffffffffffffffffffffffffffffffffffff168152602001908152602001600020600084815260200190815260200160002060009054906101000a900460ff1615158152508282815181106119ac577f4e487b7100000000000000000000000000000000000000000000000000000000600052603260045260246000fd5b602002602001018190525080806119c2906138ad565b915050611612565b508092505050919050565b60606000805b600380549050811015611aef5760005b6004600083815260200190815260200160002080549050811015611adb573373ffffffffffffffffffffffffffffffffffffffff16600460008481526020019081526020016000208281548110611a6b577f4e487b7100000000000000000000000000000000000000000000000000000000600052603260045260246000fd5b906000526020600020906004020160030160009054906101000a900473ffffffffffffffffffffffffffffffffffffffff1673ffffffffffffffffffffffffffffffffffffffff161415611ac8578280611ac4906138ad565b9350505b8080611ad3906138ad565b9150506119eb565b508080611ae7906138ad565b9150506119db565b5060008167ffffffffffffffff811115611b32577f4e487b7100000000000000000000000000000000000000000000000000000000600052604160045260246000fd5b604051908082528060200260200182016040528015611b6b57816020015b611b58612ad5565b815260200190600190039081611b505790505b5090506000805b600380549050811015611f135760005b6004600083815260200190815260200160002080549050811015611eff573373ffffffffffffffffffffffffffffffffffffffff16600460008481526020019081526020016000208281548110611c02577f4e487b7100000000000000000000000000000000000000000000000000000000600052603260045260246000fd5b906000526020600020906004020160030160009054906101000a900473ffffffffffffffffffffffffffffffffffffffff1673ffffffffffffffffffffffffffffffffffffffff161415611eec576000600460008481526020019081526020016000208281548110611c9d577f4e487b7100000000000000000000000000000000000000000000000000000000600052603260045260246000fd5b9060005260206000209060040201604051806080016040529081600082018054611cc69061384a565b80601f0160208091040260200160405190810160405280929190818152602001828054611cf29061384a565b8015611d3f5780601f10611d1457610100808354040283529160200191611d3f565b820191906000526020600020905b815481529060010190602001808311611d2257829003601f168201915b50505050508152602001600182018054611d589061384a565b80601f0160208091040260200160405190810160405280929190818152602001828054611d849061384a565b8015611dd15780601f10611da657610100808354040283529160200191611dd1565b820191906000526020600020905b815481529060010190602001808311611db457829003601f168201915b50505050508152602001600282015481526020016003820160009054906101000a900473ffffffffffffffffffffffffffffffffffffffff1673ffffffffffffffffffffffffffffffffffffffff1673ffffffffffffffffffffffffffffffffffffffff168152505090506040518060e00160405280826000015181526020018260200151815260200182604001518152602001826060015173ffffffffffffffffffffffffffffffffffffffff16815260200184815260200183815260200160001515815250858581518110611ed1577f4e487b7100000000000000000000000000000000000000000000000000000000600052603260045260246000fd5b60200260200101819052508380611ee7906138ad565b945050505b8080611ef7906138ad565b915050611b82565b508080611f0b906138ad565b915050611b72565b5081935050505090565b82611f2781610a64565b611f66576040517f08c379a0000000000000000000000000000000000000000000000000000000008152600401611f5d906133a2565b60405180910390fd5b610190835110611fab576040517f08c379a0000000000000000000000000000000000000000000000000000000008152600401611fa290613462565b60405180910390fd5b60006040518060800160405280858152602001848152602001600081526020013373ffffffffffffffffffffffffffffffffffffffff168152509050600460008681526020019081526020016000208190806001815401808255809150506001900390600052602060002090600402016000909190919091506000820151816000019080519060200190612040929190612b2a565b50602082015181600101908051906020019061205d929190612b2a565b506040820151816002015560608201518160030160006101000a81548173ffffffffffffffffffffffffffffffffffffffff021916908373ffffffffffffffffffffffffffffffffffffffff16021790555050506000600160046000888152602001908152602001600020805490506120d6919061378c565b90507fe3e1593efdbbefa284cb01da436560d912c6404146fe69513a13127cea3df5b8818733888860405161210f959493929190613590565b60405180910390a1505050505050565b60008060008054906101000a900473ffffffffffffffffffffffffffffffffffffffff1673ffffffffffffffffffffffffffffffffffffffff166370a08231336040518263ffffffff1660e01b815260040161217b9190613328565b60206040518083038186803b15801561219357600080fd5b505afa1580156121a7573d6000803e3d6000fd5b505050506040513d601f19601f820116820180604052508101906121cb9190612d44565b11905090565b81816121dd8282612831565b61221c576040517f08c379a0000000000000000000000000000000000000000000000000000000008152600401612213906133e2565b60405180910390fd5b60016005600086815260200190815260200160002060003373ffffffffffffffffffffffffffffffffffffffff1673ffffffffffffffffffffffffffffffffffffffff168152602001908152602001600020600085815260200190815260200160002060006101000a81548160ff0219169083151502179055506004600085815260200190815260200160002083815481106122e1577f4e487b7100000000000000000000000000000000000000000000000000000000600052603260045260246000fd5b90600052602060002090600402016002016000815480929190612303906138ad565b91905055507f8ef13537c1f035d01e51951f7e27474ba18b4333d618cf9bc385f1b90cbc83aa838533600460008981526020019081526020016000208781548110612377577f4e487b7100000000000000000000000000000000000000000000000000000000600052603260045260246000fd5b90600052602060002090600402016002015460405161239994939291906135f1565b60405180910390a150505050565b6123af61211f565b6123ee576040517f08c379a00000000000000000000000000000000000000000000000000000000081526004016123e590613422565b60405180910390fd5b610190845110612433576040517f08c379a000000000000000000000000000000000000000000000000000000000815260040161242a906134a2565b60405180910390fd5b80341461243f57600080fd5b60006040518060e001604052808781526020018681526020018573ffffffffffffffffffffffffffffffffffffffff1681526020018473ffffffffffffffffffffffffffffffffffffffff1681526020018381526020016001151581526020013373ffffffffffffffffffffffffffffffffffffffff16815250905060038190806001815401808255809150506001900390600052602060002090600602016000909190919091506000820151816000019080519060200190612503929190612b2a565b506020820151816001019080519060200190612520929190612b2a565b5060408201518160020160006101000a81548173ffffffffffffffffffffffffffffffffffffffff021916908373ffffffffffffffffffffffffffffffffffffffff16021790555060608201518160030160006101000a81548173ffffffffffffffffffffffffffffffffffffffff021916908373ffffffffffffffffffffffffffffffffffffffff1602179055506080820151816004015560a08201518160050160006101000a81548160ff02191690831515021790555060c08201518160050160016101000a81548173ffffffffffffffffffffffffffffffffffffffff021916908373ffffffffffffffffffffffffffffffffffffffff160217905550505081600260008282546126349190613736565b92505081905550600073ffffffffffffffffffffffffffffffffffffffff168473ffffffffffffffffffffffffffffffffffffffff16146126ee5783600660008673ffffffffffffffffffffffffffffffffffffffff1673ffffffffffffffffffffffffffffffffffffffff16815260200190815260200160002060006101000a81548173ffffffffffffffffffffffffffffffffffffffff021916908373ffffffffffffffffffffffffffffffffffffffff1602179055505b600073ffffffffffffffffffffffffffffffffffffffff168373ffffffffffffffffffffffffffffffffffffffff161415801561275757508373ffffffffffffffffffffffffffffffffffffffff168373ffffffffffffffffffffffffffffffffffffffff1614155b156127db5782600660008573ffffffffffffffffffffffffffffffffffffffff1673ffffffffffffffffffffffffffffffffffffffff16815260200190815260200160002060006101000a81548173ffffffffffffffffffffffffffffffffffffffff021916908373ffffffffffffffffffffffffffffffffffffffff1602179055505b7fbde577305bc6a5d27672a627865878cca4172ffb7788d42bca0f7fd07d3654d2600160038054905061280e919061378c565b338888604051612821949392919061353d565b60405180910390a1505050505050565b600061283c83611092565b61287b576040517f08c379a0000000000000000000000000000000000000000000000000000000008152600401612872906134e2565b60405180910390fd5b600460008481526020019081526020016000208054905082106128d3576040517f08c379a00000000000000000000000000000000000000000000000000000000081526004016128ca906133c2565b60405180910390fd5b3373ffffffffffffffffffffffffffffffffffffffff16600460008581526020019081526020016000208381548110612935577f4e487b7100000000000000000000000000000000000000000000000000000000600052603260045260246000fd5b906000526020600020906004020160030160009054906101000a900473ffffffffffffffffffffffffffffffffffffffff1673ffffffffffffffffffffffffffffffffffffffff16141580156129f757506005600084815260200190815260200160002060003373ffffffffffffffffffffffffffffffffffffffff1673ffffffffffffffffffffffffffffffffffffffff168152602001908152602001600020600083815260200190815260200160002060009054906101000a900460ff16155b905092915050565b662386f26fc100003414612a48576040517f08c379a0000000000000000000000000000000000000000000000000000000008152600401612a3f906134c2565b60405180910390fd5b60008054906101000a900473ffffffffffffffffffffffffffffffffffffffff1673ffffffffffffffffffffffffffffffffffffffff16634137cd3b336040518263ffffffff1660e01b8152600401612aa19190613328565b600060405180830381600087803b158015612abb57600080fd5b505af1158015612acf573d6000803e3d6000fd5b50505050565b6040518060e00160405280606081526020016060815260200160008152602001600073ffffffffffffffffffffffffffffffffffffffff16815260200160008152602001600081526020016000151581525090565b828054612b369061384a565b90600052602060002090601f016020900481019282612b585760008555612b9f565b82601f10612b7157805160ff1916838001178555612b9f565b82800160010185558215612b9f579182015b82811115612b9e578251825591602001919060010190612b83565b5b509050612bac9190612bb0565b5090565b5b80821115612bc9576000816000905550600101612bb1565b5090565b6000612be0612bdb8461365b565b613636565b905082815260208101848484011115612bf857600080fd5b612c03848285613808565b509392505050565b600081359050612c1a81613bcf565b92915050565b600082601f830112612c3157600080fd5b8135612c41848260208601612bcd565b91505092915050565b600081359050612c5981613be6565b92915050565b600081519050612c6e81613be6565b92915050565b600080600080600060a08688031215612c8c57600080fd5b600086013567ffffffffffffffff811115612ca657600080fd5b612cb288828901612c20565b955050602086013567ffffffffffffffff811115612ccf57600080fd5b612cdb88828901612c20565b9450506040612cec88828901612c0b565b9350506060612cfd88828901612c0b565b9250506080612d0e88828901612c4a565b9150509295509295909350565b600060208284031215612d2d57600080fd5b6000612d3b84828501612c4a565b91505092915050565b600060208284031215612d5657600080fd5b6000612d6484828501612c5f565b91505092915050565b600080600060608486031215612d8257600080fd5b6000612d9086828701612c4a565b935050602084013567ffffffffffffffff811115612dad57600080fd5b612db986828701612c20565b925050604084013567ffffffffffffffff811115612dd657600080fd5b612de286828701612c20565b9150509250925092565b60008060408385031215612dff57600080fd5b6000612e0d85828601612c4a565b9250506020612e1e85828601612c4a565b9150509250929050565b6000612e3483836131af565b905092915050565b6000612e488383613252565b905092915050565b612e59816137c0565b82525050565b612e68816137c0565b82525050565b6000612e79826136ac565b612e8381856136e7565b935083602082028501612e958561368c565b8060005b85811015612ed15784840389528151612eb28582612e28565b9450612ebd836136cd565b925060208a01995050600181019050612e99565b50829750879550505050505092915050565b6000612eee826136b7565b612ef881856136f8565b935083602082028501612f0a8561369c565b8060005b85811015612f465784840389528151612f278582612e3c565b9450612f32836136da565b925060208a01995050600181019050612f0e565b50829750879550505050505092915050565b612f61816137d2565b82525050565b612f70816137d2565b82525050565b6000612f81826136c2565b612f8b8185613714565b9350612f9b818560208601613817565b612fa481613983565b840191505092915050565b6000612fba826136c2565b612fc48185613725565b9350612fd4818560208601613817565b612fdd81613983565b840191505092915050565b6000612ff5602883613725565b915061300082613994565b604082019050919050565b6000613018600b83613725565b9150613023826139e3565b602082019050919050565b600061303b602e83613725565b915061304682613a0c565b604082019050919050565b600061305e601b83613725565b915061306982613a5b565b602082019050919050565b6000613081601583613725565b915061308c82613a84565b602082019050919050565b60006130a4601783613725565b91506130af82613aad565b602082019050919050565b60006130c7601a83613725565b91506130d282613ad6565b602082019050919050565b60006130ea601083613725565b91506130f582613aff565b602082019050919050565b600061310d601b83613725565b915061311882613b28565b602082019050919050565b6000613130601d83613725565b915061313b82613b51565b602082019050919050565b6000613153601083613725565b915061315e82613b7a565b602082019050919050565b6000613176600083613709565b915061318182613ba3565b600082019050919050565b6000613199601e83613725565b91506131a482613ba6565b602082019050919050565b600060e08301600083015184820360008601526131cc8282612f76565b915050602083015184820360208601526131e68282612f76565b91505060408301516131fb6040860182612e50565b50606083015161320e6060860182612e50565b50608083015161322160808601826132f5565b5060a083015161323460a0860182612f58565b5060c083015161324760c0860182612e50565b508091505092915050565b600060e083016000830151848203600086015261326f8282612f76565b915050602083015184820360208601526132898282612f76565b915050604083015161329e60408601826132f5565b5060608301516132b16060860182612e50565b5060808301516132c460808601826132f5565b5060a08301516132d760a08601826132f5565b5060c08301516132ea60c0860182612f58565b508091505092915050565b6132fe816137fe565b82525050565b61330d816137fe565b82525050565b600061331e82613169565b9150819050919050565b600060208201905061333d6000830184612e5f565b92915050565b6000602082019050818103600083015261335d8184612e6e565b905092915050565b6000602082019050818103600083015261337f8184612ee3565b905092915050565b600060208201905061339c6000830184612f67565b92915050565b600060208201905081810360008301526133bb81612fe8565b9050919050565b600060208201905081810360008301526133db8161300b565b9050919050565b600060208201905081810360008301526133fb8161302e565b9050919050565b6000602082019050818103600083015261341b81613051565b9050919050565b6000602082019050818103600083015261343b81613074565b9050919050565b6000602082019050818103600083015261345b81613097565b9050919050565b6000602082019050818103600083015261347b816130ba565b9050919050565b6000602082019050818103600083015261349b816130dd565b9050919050565b600060208201905081810360008301526134bb81613100565b9050919050565b600060208201905081810360008301526134db81613123565b9050919050565b600060208201905081810360008301526134fb81613146565b9050919050565b6000602082019050818103600083015261351b8161318c565b9050919050565b60006020820190506135376000830184613304565b92915050565b60006080820190506135526000830187613304565b61355f6020830186612e5f565b81810360408301526135718185612faf565b905081810360608301526135858184612faf565b905095945050505050565b600060a0820190506135a56000830188613304565b6135b26020830187613304565b6135bf6040830186612e5f565b81810360608301526135d18185612faf565b905081810360808301526135e58184612faf565b90509695505050505050565b60006080820190506136066000830187613304565b6136136020830186613304565b6136206040830185612e5f565b61362d6060830184613304565b95945050505050565b6000613640613651565b905061364c828261387c565b919050565b6000604051905090565b600067ffffffffffffffff82111561367657613675613954565b5b61367f82613983565b9050602081019050919050565b6000819050602082019050919050565b6000819050602082019050919050565b600081519050919050565b600081519050919050565b600081519050919050565b6000602082019050919050565b6000602082019050919050565b600082825260208201905092915050565b600082825260208201905092915050565b600081905092915050565b600082825260208201905092915050565b600082825260208201905092915050565b6000613741826137fe565b915061374c836137fe565b9250827fffffffffffffffffffffffffffffffffffffffffffffffffffffffffffffffff03821115613781576137806138f6565b5b828201905092915050565b6000613797826137fe565b91506137a2836137fe565b9250828210156137b5576137b46138f6565b5b828203905092915050565b60006137cb826137de565b9050919050565b60008115159050919050565b600073ffffffffffffffffffffffffffffffffffffffff82169050919050565b6000819050919050565b82818337600083830152505050565b60005b8381101561383557808201518184015260208101905061381a565b83811115613844576000848401525b50505050565b6000600282049050600182168061386257607f821691505b6020821081141561387657613875613925565b5b50919050565b61388582613983565b810181811067ffffffffffffffff821117156138a4576138a3613954565b5b80604052505050565b60006138b8826137fe565b91507fffffffffffffffffffffffffffffffffffffffffffffffffffffffffffffffff8214156138eb576138ea6138f6565b5b600182019050919050565b7f4e487b7100000000000000000000000000000000000000000000000000000000600052601160045260246000fd5b7f4e487b7100000000000000000000000000000000000000000000000000000000600052602260045260246000fd5b7f4e487b7100000000000000000000000000000000000000000000000000000000600052604160045260246000fd5b6000601f19601f8301169050919050565b7f596f75206e65656420746f20626520612068756e74657220666f72207468697360008201527f20616374696f6e2e000000000000000000000000000000000000000000000000602082015250565b7f496e76616c696420554944000000000000000000000000000000000000000000600082015250565b7f596f752063616e277420766f7465206f72206861766520616c7265616479206360008201527f61737420796f757220766f74652e000000000000000000000000000000000000602082015250565b7f596f7520617265206e6f742074686520426f6172642041646d696e0000000000600082015250565b7f596f7520617265206e6f7420612048756e7465722e0000000000000000000000600082015250565b7f4f6e6c79206f776e65722063616e207769746864726177000000000000000000600082015250565b7f49646561206465736372697074696f6e20746f6f206c6f6e6721000000000000600082015250565b7f496e76616c696420426f61726420494400000000000000000000000000000000600082015250565b7f426f617264206465736372697074696f6e20746f6f206c6f6e67210000000000600082015250565b7f436f7374206f662074686520746f6b656e20697320302e303120455448000000600082015250565b7f4e6f20766f74696e672072696768747300000000000000000000000000000000600082015250565b50565b7f5472616e73616374696f6e20776173206e6f74207375636365737366756c0000600082015250565b613bd8816137c0565b8114613be357600080fd5b50565b613bef816137fe565b8114613bfa57600080fd5b5056fea2646970667358221220ac4957b95ff9891c84fd81f23f954098a3eaf0d3bc688fedd4717d5c0a558d8064736f6c63430008040033",
    "linkReferences": {},
    "deployedLinkReferences": {}
}